{
  "contractName": "PharmaTrust",
  "abi": [
    {
      "inputs": [],
      "stateMutability": "nonpayable",
      "type": "constructor"
    },
    {
      "inputs": [
        {
          "internalType": "uint256",
          "name": "",
          "type": "uint256"
        }
      ],
      "name": "DIST",
      "outputs": [
        {
          "internalType": "address",
          "name": "addr",
          "type": "address"
        },
        {
          "internalType": "uint256",
          "name": "id",
          "type": "uint256"
        },
        {
          "internalType": "string",
          "name": "name",
          "type": "string"
        },
        {
          "internalType": "string",
          "name": "place",
          "type": "string"
        }
      ],
      "stateMutability": "view",
      "type": "function"
    },
    {
      "inputs": [],
      "name": "Government",
      "outputs": [
        {
          "internalType": "address",
          "name": "",
          "type": "address"
        }
      ],
      "stateMutability": "view",
      "type": "function"
    },
    {
      "inputs": [
        {
          "internalType": "uint256",
          "name": "",
          "type": "uint256"
        }
      ],
      "name": "MAN",
      "outputs": [
        {
          "internalType": "address",
          "name": "addr",
          "type": "address"
        },
        {
          "internalType": "uint256",
          "name": "id",
          "type": "uint256"
        },
        {
          "internalType": "string",
          "name": "name",
          "type": "string"
        },
        {
          "internalType": "string",
          "name": "place",
          "type": "string"
        }
      ],
      "stateMutability": "view",
      "type": "function"
    },
    {
      "inputs": [
        {
          "internalType": "uint256",
          "name": "",
          "type": "uint256"
        }
      ],
      "name": "RET",
      "outputs": [
        {
          "internalType": "address",
          "name": "addr",
          "type": "address"
        },
        {
          "internalType": "uint256",
          "name": "id",
          "type": "uint256"
        },
        {
          "internalType": "string",
          "name": "name",
          "type": "string"
        },
        {
          "internalType": "string",
          "name": "place",
          "type": "string"
        }
      ],
      "stateMutability": "view",
      "type": "function"
    },
    {
      "inputs": [
        {
          "internalType": "uint256",
          "name": "",
          "type": "uint256"
        }
      ],
      "name": "RMS",
      "outputs": [
        {
          "internalType": "address",
          "name": "addr",
          "type": "address"
        },
        {
          "internalType": "uint256",
          "name": "id",
          "type": "uint256"
        },
        {
          "internalType": "string",
          "name": "name",
          "type": "string"
        },
        {
          "internalType": "string",
          "name": "place",
          "type": "string"
        }
      ],
      "stateMutability": "view",
      "type": "function"
    },
    {
      "inputs": [],
      "name": "distCount",
      "outputs": [
        {
          "internalType": "uint256",
          "name": "",
          "type": "uint256"
        }
      ],
      "stateMutability": "view",
      "type": "function"
    },
    {
      "inputs": [],
      "name": "manCount",
      "outputs": [
        {
          "internalType": "uint256",
          "name": "",
          "type": "uint256"
        }
      ],
      "stateMutability": "view",
      "type": "function"
    },
    {
      "inputs": [
        {
          "internalType": "uint256",
          "name": "",
          "type": "uint256"
        }
      ],
      "name": "medAvailable",
      "outputs": [
        {
          "internalType": "uint256",
          "name": "id",
          "type": "uint256"
        },
        {
          "internalType": "string",
          "name": "name",
          "type": "string"
        },
        {
          "internalType": "string",
          "name": "expDate",
          "type": "string"
        },
        {
          "internalType": "string",
          "name": "description",
          "type": "string"
        },
        {
          "internalType": "uint256",
          "name": "RMSid",
          "type": "uint256"
        },
        {
          "internalType": "uint256",
          "name": "MANid",
          "type": "uint256"
        },
        {
          "internalType": "uint256",
          "name": "DISTid",
          "type": "uint256"
        },
        {
          "internalType": "uint256",
          "name": "RETid",
          "type": "uint256"
        },
        {
          "internalType": "enum PharmaTrust.STAGE",
          "name": "stage",
          "type": "uint8"
        }
      ],
      "stateMutability": "view",
      "type": "function"
    },
    {
      "inputs": [],
      "name": "medicineCount",
      "outputs": [
        {
          "internalType": "uint256",
          "name": "",
          "type": "uint256"
        }
      ],
      "stateMutability": "view",
      "type": "function"
    },
    {
      "inputs": [],
      "name": "phCount",
      "outputs": [
        {
          "internalType": "uint256",
          "name": "",
          "type": "uint256"
        }
      ],
      "stateMutability": "view",
      "type": "function"
    },
    {
      "inputs": [],
      "name": "rmsCount",
      "outputs": [
        {
          "internalType": "uint256",
          "name": "",
          "type": "uint256"
        }
      ],
      "stateMutability": "view",
      "type": "function"
    },
    {
      "inputs": [
        {
          "internalType": "uint256",
          "name": "_medicineID",
          "type": "uint256"
        }
      ],
      "name": "showStage",
      "outputs": [
        {
          "internalType": "string",
          "name": "",
          "type": "string"
        }
      ],
      "stateMutability": "view",
      "type": "function"
    },
    {
      "inputs": [
        {
          "internalType": "address",
          "name": "_address",
          "type": "address"
        },
        {
          "internalType": "string",
          "name": "_name",
          "type": "string"
        },
        {
          "internalType": "string",
          "name": "_place",
          "type": "string"
        }
      ],
      "name": "addRMS",
      "outputs": [],
      "stateMutability": "nonpayable",
      "type": "function"
    },
    {
      "inputs": [
        {
          "internalType": "address",
          "name": "_address",
          "type": "address"
        },
        {
          "internalType": "string",
          "name": "_name",
          "type": "string"
        },
        {
          "internalType": "string",
          "name": "_place",
          "type": "string"
        }
      ],
      "name": "addManufacturer",
      "outputs": [],
      "stateMutability": "nonpayable",
      "type": "function"
    },
    {
      "inputs": [
        {
          "internalType": "address",
          "name": "_address",
          "type": "address"
        },
        {
          "internalType": "string",
          "name": "_name",
          "type": "string"
        },
        {
          "internalType": "string",
          "name": "_place",
          "type": "string"
        }
      ],
      "name": "addDistributor",
      "outputs": [],
      "stateMutability": "nonpayable",
      "type": "function"
    },
    {
      "inputs": [
        {
          "internalType": "address",
          "name": "_address",
          "type": "address"
        },
        {
          "internalType": "string",
          "name": "_name",
          "type": "string"
        },
        {
          "internalType": "string",
          "name": "_place",
          "type": "string"
        }
      ],
      "name": "addRetailer",
      "outputs": [],
      "stateMutability": "nonpayable",
      "type": "function"
    },
    {
      "inputs": [
        {
          "internalType": "uint256",
          "name": "_medicineID",
          "type": "uint256"
        }
      ],
      "name": "RMSsupply",
      "outputs": [],
      "stateMutability": "nonpayable",
      "type": "function"
    },
    {
      "inputs": [
        {
          "internalType": "uint256",
          "name": "_medicineID",
          "type": "uint256"
        }
      ],
      "name": "Manufacturing",
      "outputs": [],
      "stateMutability": "nonpayable",
      "type": "function"
    },
    {
      "inputs": [
        {
          "internalType": "uint256",
          "name": "_medicineID",
          "type": "uint256"
        }
      ],
      "name": "Distribute",
      "outputs": [],
      "stateMutability": "nonpayable",
      "type": "function"
    },
    {
      "inputs": [
        {
          "internalType": "uint256",
          "name": "_medicineID",
          "type": "uint256"
        }
      ],
      "name": "Retail",
      "outputs": [],
      "stateMutability": "nonpayable",
      "type": "function"
    },
    {
      "inputs": [
        {
          "internalType": "uint256",
          "name": "_medicineID",
          "type": "uint256"
        }
      ],
      "name": "sold",
      "outputs": [],
      "stateMutability": "nonpayable",
      "type": "function"
    },
    {
      "inputs": [
        {
          "internalType": "string",
          "name": "_name",
          "type": "string"
        },
        {
          "internalType": "string",
          "name": "_expdate",
          "type": "string"
        },
        {
          "internalType": "string",
          "name": "_description",
          "type": "string"
        }
      ],
      "name": "addMedicine",
      "outputs": [],
      "stateMutability": "nonpayable",
      "type": "function"
    }
  ],
  "bytecode": "0x60806040526000600155600060025560006003556000600455600060055534801561002957600080fd5b50336000806101000a81548173ffffffffffffffffffffffffffffffffffffffff021916908373ffffffffffffffffffffffffffffffffffffffff160217905550612528806100796000396000f3fe608060405234801561001057600080fd5b50600436106101425760003560e01c80637b855ae4116100b8578063a48d335a1161007c578063a48d335a14610344578063cc40306914610360578063d42510b614610393578063e101a2e0146103c6578063e4663853146103f6578063eef5cb401461041457610142565b80637b855ae4146102b45780637c25f260146102d2578063857ddb04146102f057806386c182751461030c5780639c03facb1461032857610142565b80633d753a1c1161010a5780633d753a1c146101f15780634d3fdae91461020d5780634dafd4901461022b5780634def474a1461024957806359bf286f146102655780636a992c9f1461029857610142565b806302e0d9fa14610147578063030c790f146101655780632a4af440146101815780632b70b08d1461019d5780633c1820c2146101b9575b600080fd5b61014f610447565b60405161015c9190611e7d565b60405180910390f35b61017f600480360381019061017a9190611ff2565b61044d565b005b61019b600480360381019061019691906120f7565b6105ce565b005b6101b760048036038101906101b291906120f7565b61071f565b005b6101d360048036038101906101ce91906121ae565b610870565b6040516101e8999897969594939291906122da565b60405180910390f35b61020b600480360381019061020691906121ae565b610a63565b005b610215610b4a565b6040516102229190611e7d565b60405180910390f35b610233610b50565b6040516102409190611e7d565b60405180910390f35b610263600480360381019061025e91906121ae565b610b56565b005b61027f600480360381019061027a91906121ae565b610c3d565b60405161028f949392919061238b565b60405180910390f35b6102b260048036038101906102ad91906120f7565b610d9d565b005b6102bc610eee565b6040516102c99190611e7d565b60405180910390f35b6102da610ef4565b6040516102e791906123de565b60405180910390f35b61030a600480360381019061030591906120f7565b610f18565b005b610326600480360381019061032191906121ae565b611069565b005b610342600480360381019061033d91906121ae565b611150565b005b61035e600480360381019061035991906121ae565b61123e565b005b61037a600480360381019061037591906121ae565b611325565b60405161038a949392919061238b565b60405180910390f35b6103ad60048036038101906103a891906121ae565b611485565b6040516103bd949392919061238b565b60405180910390f35b6103e060048036038101906103db91906121ae565b6115e5565b6040516103ed91906123f9565b60405180910390f35b6103fe611943565b60405161040b9190611e7d565b60405180910390f35b61042e600480360381019061042991906121ae565b611949565b60405161043e949392919061238b565b60405180910390f35b60055481565b600060025411801561046157506000600354115b801561046f57506000600454115b801561047d57506000600554115b61048657600080fd5b600160008154809291906104999061244a565b9190505550604051806101200160405280600154815260200184815260200183815260200182815260200160008152602001600081526020016000815260200160008152602001600060058111156104f4576104f3612263565b5b815250600660006001548152602001908152602001600020600082015181600001556020820151816001019080519060200190610532929190611dc1565b50604082015181600201908051906020019061054f929190611dc1565b50606082015181600301908051906020019061056c929190611dc1565b506080820151816004015560a0820151816005015560c0820151816006015560e082015181600701556101008201518160080160006101000a81548160ff021916908360058111156105c1576105c0612263565b5b0217905550905050505050565b60008054906101000a900473ffffffffffffffffffffffffffffffffffffffff1673ffffffffffffffffffffffffffffffffffffffff163373ffffffffffffffffffffffffffffffffffffffff161461062657600080fd5b600460008154809291906106399061244a565b919050555060405180608001604052808473ffffffffffffffffffffffffffffffffffffffff16815260200160045481526020018381526020018281525060096000600454815260200190815260200160002060008201518160000160006101000a81548173ffffffffffffffffffffffffffffffffffffffff021916908373ffffffffffffffffffffffffffffffffffffffff1602179055506020820151816001015560408201518160020190805190602001906106f9929190611dc1565b506060820151816003019080519060200190610716929190611dc1565b50905050505050565b60008054906101000a900473ffffffffffffffffffffffffffffffffffffffff1673ffffffffffffffffffffffffffffffffffffffff163373ffffffffffffffffffffffffffffffffffffffff161461077757600080fd5b6002600081548092919061078a9061244a565b919050555060405180608001604052808473ffffffffffffffffffffffffffffffffffffffff16815260200160025481526020018381526020018281525060076000600254815260200190815260200160002060008201518160000160006101000a81548173ffffffffffffffffffffffffffffffffffffffff021916908373ffffffffffffffffffffffffffffffffffffffff16021790555060208201518160010155604082015181600201908051906020019061084a929190611dc1565b506060820151816003019080519060200190610867929190611dc1565b50905050505050565b6006602052806000526040600020600091509050806000015490806001018054610899906124c1565b80601f01602080910402602001604051908101604052809291908181526020018280546108c5906124c1565b80156109125780601f106108e757610100808354040283529160200191610912565b820191906000526020600020905b8154815290600101906020018083116108f557829003601f168201915b505050505090806002018054610927906124c1565b80601f0160208091040260200160405190810160405280929190818152602001828054610953906124c1565b80156109a05780601f10610975576101008083540402835291602001916109a0565b820191906000526020600020905b81548152906001019060200180831161098357829003601f168201915b5050505050908060030180546109b5906124c1565b80601f01602080910402602001604051908101604052809291908181526020018280546109e1906124c1565b8015610a2e5780601f10610a0357610100808354040283529160200191610a2e565b820191906000526020600020905b815481529060010190602001808311610a1157829003601f168201915b5050505050908060040154908060050154908060060154908060070154908060080160009054906101000a900460ff16905089565b600081118015610a7557506001548111155b610a7e57600080fd5b6000610a8933611aa9565b905060008111610a9857600080fd5b60036005811115610aac57610aab612263565b5b6006600084815260200190815260200160002060080160009054906101000a900460ff166005811115610ae257610ae1612263565b5b14610aec57600080fd5b80600660008481526020019081526020016000206007018190555060046006600084815260200190815260200160002060080160006101000a81548160ff02191690836005811115610b4157610b40612263565b5b02179055505050565b60045481565b60015481565b600081118015610b6857506001548111155b610b7157600080fd5b6000610b7c33611b6f565b905060008111610b8b57600080fd5b60026005811115610b9f57610b9e612263565b5b6006600084815260200190815260200160002060080160009054906101000a900460ff166005811115610bd557610bd4612263565b5b14610bdf57600080fd5b80600660008481526020019081526020016000206006018190555060036006600084815260200190815260200160002060080160006101000a81548160ff02191690836005811115610c3457610c33612263565b5b02179055505050565b600a6020528060005260406000206000915090508060000160009054906101000a900473ffffffffffffffffffffffffffffffffffffffff1690806001015490806002018054610c8c906124c1565b80601f0160208091040260200160405190810160405280929190818152602001828054610cb8906124c1565b8015610d055780601f10610cda57610100808354040283529160200191610d05565b820191906000526020600020905b815481529060010190602001808311610ce857829003601f168201915b505050505090806003018054610d1a906124c1565b80601f0160208091040260200160405190810160405280929190818152602001828054610d46906124c1565b8015610d935780601f10610d6857610100808354040283529160200191610d93565b820191906000526020600020905b815481529060010190602001808311610d7657829003601f168201915b5050505050905084565b60008054906101000a900473ffffffffffffffffffffffffffffffffffffffff1673ffffffffffffffffffffffffffffffffffffffff163373ffffffffffffffffffffffffffffffffffffffff1614610df557600080fd5b60036000815480929190610e089061244a565b919050555060405180608001604052808473ffffffffffffffffffffffffffffffffffffffff16815260200160035481526020018381526020018281525060086000600354815260200190815260200160002060008201518160000160006101000a81548173ffffffffffffffffffffffffffffffffffffffff021916908373ffffffffffffffffffffffffffffffffffffffff160217905550602082015181600101556040820151816002019080519060200190610ec8929190611dc1565b506060820151816003019080519060200190610ee5929190611dc1565b50905050505050565b60035481565b60008054906101000a900473ffffffffffffffffffffffffffffffffffffffff1681565b60008054906101000a900473ffffffffffffffffffffffffffffffffffffffff1673ffffffffffffffffffffffffffffffffffffffff163373ffffffffffffffffffffffffffffffffffffffff1614610f7057600080fd5b60056000815480929190610f839061244a565b919050555060405180608001604052808473ffffffffffffffffffffffffffffffffffffffff168152602001600554815260200183815260200182815250600a6000600554815260200190815260200160002060008201518160000160006101000a81548173ffffffffffffffffffffffffffffffffffffffff021916908373ffffffffffffffffffffffffffffffffffffffff160217905550602082015181600101556040820151816002019080519060200190611043929190611dc1565b506060820151816003019080519060200190611060929190611dc1565b50905050505050565b60008111801561107b57506001548111155b61108457600080fd5b600061108f33611c35565b90506000811161109e57600080fd5b600060058111156110b2576110b1612263565b5b6006600084815260200190815260200160002060080160009054906101000a900460ff1660058111156110e8576110e7612263565b5b146110f257600080fd5b80600660008481526020019081526020016000206004018190555060016006600084815260200190815260200160002060080160006101000a81548160ff0219169083600581111561114757611146612263565b5b02179055505050565b60008111801561116257506001548111155b61116b57600080fd5b600061117633611aa9565b90506000811161118557600080fd5b600660008381526020019081526020016000206007015481146111a757600080fd5b600460058111156111bb576111ba612263565b5b6006600084815260200190815260200160002060080160009054906101000a900460ff1660058111156111f1576111f0612263565b5b146111fb57600080fd5b60056006600084815260200190815260200160002060080160006101000a81548160ff0219169083600581111561123557611234612263565b5b02179055505050565b60008111801561125057506001548111155b61125957600080fd5b600061126433611cfb565b90506000811161127357600080fd5b6001600581111561128757611286612263565b5b6006600084815260200190815260200160002060080160009054906101000a900460ff1660058111156112bd576112bc612263565b5b146112c757600080fd5b80600660008481526020019081526020016000206005018190555060026006600084815260200190815260200160002060080160006101000a81548160ff0219169083600581111561131c5761131b612263565b5b02179055505050565b60086020528060005260406000206000915090508060000160009054906101000a900473ffffffffffffffffffffffffffffffffffffffff1690806001015490806002018054611374906124c1565b80601f01602080910402602001604051908101604052809291908181526020018280546113a0906124c1565b80156113ed5780601f106113c2576101008083540402835291602001916113ed565b820191906000526020600020905b8154815290600101906020018083116113d057829003601f168201915b505050505090806003018054611402906124c1565b80601f016020809104026020016040519081016040528092919081815260200182805461142e906124c1565b801561147b5780601f106114505761010080835404028352916020019161147b565b820191906000526020600020905b81548152906001019060200180831161145e57829003601f168201915b5050505050905084565b60096020528060005260406000206000915090508060000160009054906101000a900473ffffffffffffffffffffffffffffffffffffffff16908060010154908060020180546114d4906124c1565b80601f0160208091040260200160405190810160405280929190818152602001828054611500906124c1565b801561154d5780601f106115225761010080835404028352916020019161154d565b820191906000526020600020905b81548152906001019060200180831161153057829003601f168201915b505050505090806003018054611562906124c1565b80601f016020809104026020016040519081016040528092919081815260200182805461158e906124c1565b80156115db5780601f106115b0576101008083540402835291602001916115db565b820191906000526020600020905b8154815290600101906020018083116115be57829003601f168201915b5050505050905084565b60606000600154116115f657600080fd5b6000600581111561160a57611609612263565b5b6006600084815260200190815260200160002060080160009054906101000a900460ff1660058111156116405761163f612263565b5b03611682576040518060400160405280601081526020017f4d65646963696e65204f72646572656400000000000000000000000000000000815250905061193e565b6001600581111561169657611695612263565b5b6006600084815260200190815260200160002060080160009054906101000a900460ff1660058111156116cc576116cb612263565b5b0361170e576040518060400160405280601981526020017f526177204d6174657269616c20537570706c7920537461676500000000000000815250905061193e565b6002600581111561172257611721612263565b5b6006600084815260200190815260200160002060080160009054906101000a900460ff16600581111561175857611757612263565b5b0361179a576040518060400160405280601381526020017f4d616e75666163747572696e6720537461676500000000000000000000000000815250905061193e565b600360058111156117ae576117ad612263565b5b6006600084815260200190815260200160002060080160009054906101000a900460ff1660058111156117e4576117e3612263565b5b03611826576040518060400160405280601281526020017f446973747269627574696f6e2053746167650000000000000000000000000000815250905061193e565b6004600581111561183a57611839612263565b5b6006600084815260200190815260200160002060080160009054906101000a900460ff1660058111156118705761186f612263565b5b036118b2576040518060400160405280600c81526020017f52657461696c2053746167650000000000000000000000000000000000000000815250905061193e565b6005808111156118c5576118c4612263565b5b6006600084815260200190815260200160002060080160009054906101000a900460ff1660058111156118fb576118fa612263565b5b0361193d576040518060400160405280600d81526020017f4d65646963696e6520536f6c6400000000000000000000000000000000000000815250905061193e565b5b919050565b60025481565b60076020528060005260406000206000915090508060000160009054906101000a900473ffffffffffffffffffffffffffffffffffffffff1690806001015490806002018054611998906124c1565b80601f01602080910402602001604051908101604052809291908181526020018280546119c4906124c1565b8015611a115780601f106119e657610100808354040283529160200191611a11565b820191906000526020600020905b8154815290600101906020018083116119f457829003601f168201915b505050505090806003018054611a26906124c1565b80601f0160208091040260200160405190810160405280929190818152602001828054611a52906124c1565b8015611a9f5780601f10611a7457610100808354040283529160200191611a9f565b820191906000526020600020905b815481529060010190602001808311611a8257829003601f168201915b5050505050905084565b60008060055411611ab957600080fd5b6000600190505b6005548111611b64578273ffffffffffffffffffffffffffffffffffffffff16600a600083815260200190815260200160002060000160009054906101000a900473ffffffffffffffffffffffffffffffffffffffff1673ffffffffffffffffffffffffffffffffffffffff1603611b5157600a600082815260200190815260200160002060010154915050611b6a565b8080611b5c9061244a565b915050611ac0565b50600090505b919050565b60008060045411611b7f57600080fd5b6000600190505b6004548111611c2a578273ffffffffffffffffffffffffffffffffffffffff166009600083815260200190815260200160002060000160009054906101000a900473ffffffffffffffffffffffffffffffffffffffff1673ffffffffffffffffffffffffffffffffffffffff1603611c17576009600082815260200190815260200160002060010154915050611c30565b8080611c229061244a565b915050611b86565b50600090505b919050565b60008060025411611c4557600080fd5b6000600190505b6002548111611cf0578273ffffffffffffffffffffffffffffffffffffffff166007600083815260200190815260200160002060000160009054906101000a900473ffffffffffffffffffffffffffffffffffffffff1673ffffffffffffffffffffffffffffffffffffffff1603611cdd576007600082815260200190815260200160002060010154915050611cf6565b8080611ce89061244a565b915050611c4c565b50600090505b919050565b60008060035411611d0b57600080fd5b6000600190505b6003548111611db6578273ffffffffffffffffffffffffffffffffffffffff166008600083815260200190815260200160002060000160009054906101000a900473ffffffffffffffffffffffffffffffffffffffff1673ffffffffffffffffffffffffffffffffffffffff1603611da3576008600082815260200190815260200160002060010154915050611dbc565b8080611dae9061244a565b915050611d12565b50600090505b919050565b828054611dcd906124c1565b90600052602060002090601f016020900481019282611def5760008555611e36565b82601f10611e0857805160ff1916838001178555611e36565b82800160010185558215611e36579182015b82811115611e35578251825591602001919060010190611e1a565b5b509050611e439190611e47565b5090565b5b80821115611e60576000816000905550600101611e48565b5090565b6000819050919050565b611e7781611e64565b82525050565b6000602082019050611e926000830184611e6e565b92915050565b6000604051905090565b600080fd5b600080fd5b600080fd5b600080fd5b6000601f19601f8301169050919050565b7f4e487b7100000000000000000000000000000000000000000000000000000000600052604160045260246000fd5b611eff82611eb6565b810181811067ffffffffffffffff82111715611f1e57611f1d611ec7565b5b80604052505050565b6000611f31611e98565b9050611f3d8282611ef6565b919050565b600067ffffffffffffffff821115611f5d57611f5c611ec7565b5b611f6682611eb6565b9050602081019050919050565b82818337600083830152505050565b6000611f95611f9084611f42565b611f27565b905082815260208101848484011115611fb157611fb0611eb1565b5b611fbc848285611f73565b509392505050565b600082601f830112611fd957611fd8611eac565b5b8135611fe9848260208601611f82565b91505092915050565b60008060006060848603121561200b5761200a611ea2565b5b600084013567ffffffffffffffff81111561202957612028611ea7565b5b61203586828701611fc4565b935050602084013567ffffffffffffffff81111561205657612055611ea7565b5b61206286828701611fc4565b925050604084013567ffffffffffffffff81111561208357612082611ea7565b5b61208f86828701611fc4565b9150509250925092565b600073ffffffffffffffffffffffffffffffffffffffff82169050919050565b60006120c482612099565b9050919050565b6120d4816120b9565b81146120df57600080fd5b50565b6000813590506120f1816120cb565b92915050565b6000806000606084860312156121105761210f611ea2565b5b600061211e868287016120e2565b935050602084013567ffffffffffffffff81111561213f5761213e611ea7565b5b61214b86828701611fc4565b925050604084013567ffffffffffffffff81111561216c5761216b611ea7565b5b61217886828701611fc4565b9150509250925092565b61218b81611e64565b811461219657600080fd5b50565b6000813590506121a881612182565b92915050565b6000602082840312156121c4576121c3611ea2565b5b60006121d284828501612199565b91505092915050565b600081519050919050565b600082825260208201905092915050565b60005b838110156122155780820151818401526020810190506121fa565b83811115612224576000848401525b50505050565b6000612235826121db565b61223f81856121e6565b935061224f8185602086016121f7565b61225881611eb6565b840191505092915050565b7f4e487b7100000000000000000000000000000000000000000000000000000000600052602160045260246000fd5b600681106122a3576122a2612263565b5b50565b60008190506122b482612292565b919050565b60006122c4826122a6565b9050919050565b6122d4816122b9565b82525050565b6000610120820190506122f0600083018c611e6e565b8181036020830152612302818b61222a565b90508181036040830152612316818a61222a565b9050818103606083015261232a818961222a565b90506123396080830188611e6e565b61234660a0830187611e6e565b61235360c0830186611e6e565b61236060e0830185611e6e565b61236e6101008301846122cb565b9a9950505050505050505050565b612385816120b9565b82525050565b60006080820190506123a0600083018761237c565b6123ad6020830186611e6e565b81810360408301526123bf818561222a565b905081810360608301526123d3818461222a565b905095945050505050565b60006020820190506123f3600083018461237c565b92915050565b60006020820190508181036000830152612413818461222a565b905092915050565b7f4e487b7100000000000000000000000000000000000000000000000000000000600052601160045260246000fd5b600061245582611e64565b91507fffffffffffffffffffffffffffffffffffffffffffffffffffffffffffffffff82036124875761248661241b565b5b600182019050919050565b7f4e487b7100000000000000000000000000000000000000000000000000000000600052602260045260246000fd5b600060028204905060018216806124d957607f821691505b6020821081036124ec576124eb612492565b5b5091905056fea2646970667358221220c455b84ffdc6f8c368af4ac942d3455d7b3e6408bb4b448e52f9eb5ebb3e8b5264736f6c634300080d0033",
  "immutableReferences": {},
  "source": "// SPDX-License-Identifier: MIT\r\npragma solidity ^0.8.0;\r\n\r\ncontract PharmaTrust {\r\n    address public Government;\r\n\r\n    constructor() public {\r\n        Government = msg.sender;\r\n    }\r\n\r\n    uint256 public medicineCount = 0;\r\n    uint256 public rmsCount = 0;\r\n    uint256 public  manCount = 0;\r\n    uint256 public distCount = 0;\r\n    uint256 public phCount = 0;\r\n\r\n    enum STAGE {\r\n        Init,\r\n        RawMaterialSupply,\r\n        Manufacture,\r\n        Distribution,\r\n        Retail,\r\n        sold\r\n    }\r\n\r\n    struct medicine {\r\n        uint256 id; \r\n        string name; \r\n        string expDate;\r\n        string description; \r\n        uint256 RMSid; \r\n        uint256 MANid; \r\n        uint256 DISTid; \r\n        uint256 RETid; \r\n        STAGE stage;\r\n    }\r\n    mapping(uint256 => medicine) public medAvailable;\r\n\r\n    function showStage(uint256 _medicineID)\r\n        public\r\n        view\r\n        returns (string memory)\r\n    {\r\n        require(medicineCount > 0);\r\n        if (medAvailable[_medicineID].stage == STAGE.Init)\r\n            return \"Medicine Ordered\";\r\n        else if (medAvailable[_medicineID].stage == STAGE.RawMaterialSupply)\r\n            return \"Raw Material Supply Stage\";\r\n        else if (medAvailable[_medicineID].stage == STAGE.Manufacture)\r\n            return \"Manufacturing Stage\";\r\n        else if (medAvailable[_medicineID].stage == STAGE.Distribution)\r\n            return \"Distribution Stage\";\r\n        else if (medAvailable[_medicineID].stage == STAGE.Retail)\r\n            return \"Retail Stage\";\r\n        else if (medAvailable[_medicineID].stage == STAGE.sold)\r\n            return \"Medicine Sold\";\r\n    }\r\n\r\n    struct rawMaterialSupplier {\r\n        address addr;\r\n        uint256 id; \r\n        string name; \r\n        string place; \r\n    }\r\n    mapping(uint256 => rawMaterialSupplier) public RMS;\r\n\r\n    struct manufacturer {\r\n        address addr;\r\n        uint256 id;\r\n        string name;\r\n        string place;\r\n    }\r\n    mapping(uint256 => manufacturer) public MAN;\r\n\r\n    struct distributor {\r\n        address addr;\r\n        uint256 id;\r\n        string name;\r\n        string place; \r\n    }\r\n    mapping(uint256 => distributor) public DIST;\r\n\r\n    struct retailer {\r\n        address addr;\r\n        uint256 id; \r\n        string name; \r\n        string place;\r\n    }\r\n    mapping(uint256 => retailer) public RET;\r\n\r\n    modifier onlyByGov() {\r\n        require(msg.sender == Government);\r\n        _;\r\n    }\r\n\r\n    function addRMS(address _address,string memory _name,string memory _place) public onlyByGov {\r\n        rmsCount++;\r\n        RMS[rmsCount] = rawMaterialSupplier(_address, rmsCount, _name, _place);\r\n    }\r\n\r\n    function addManufacturer(address _address,string memory _name,string memory _place) public onlyByGov {\r\n        manCount++;\r\n        MAN[manCount] = manufacturer(_address, manCount, _name, _place);\r\n    }\r\n\r\n    function addDistributor(address _address,string memory _name,string memory _place) public onlyByGov {\r\n        distCount++;\r\n        DIST[distCount] = distributor(_address, distCount, _name, _place);\r\n    }\r\n\r\n    function addRetailer(address _address,string memory _name,string memory _place) public onlyByGov {\r\n        phCount++;\r\n        RET[phCount] = retailer(_address, phCount, _name, _place);\r\n    }\r\n\r\n    //check RMS available in blockchain\r\n    function findRMS(address _address) private view returns (uint256) {\r\n        require(rmsCount > 0);\r\n        for (uint256 i = 1; i <= rmsCount; i++) {\r\n            if (RMS[i].addr == _address) return RMS[i].id;\r\n        }\r\n        return 0;\r\n    }\r\n\r\n    //check Manufacturer available in blockchain\r\n    function findMAN(address _address) private view returns (uint256) {\r\n        require(manCount > 0);\r\n        for (uint256 i = 1; i <= manCount; i++) {\r\n            if (MAN[i].addr == _address) return MAN[i].id;\r\n        }\r\n        return 0;\r\n    }\r\n\r\n    //check distributor available in blockchain\r\n    function findDIS(address _address) private view returns (uint256) {\r\n        require(distCount > 0);\r\n        for (uint256 i = 1; i <= distCount; i++) {\r\n            if (DIST[i].addr == _address) return DIST[i].id;\r\n        }\r\n        return 0;\r\n    }\r\n\r\n    //check retailer available in blockchain\r\n    function findRET(address _address) private view returns (uint256) {\r\n        require(phCount > 0);\r\n        for (uint256 i = 1; i <= phCount; i++) {\r\n            if (RET[i].addr == _address) return RET[i].id;\r\n        }\r\n        return 0;\r\n    }\r\n\r\n    //supply raw materials from RMS supplier to manufacturer\r\n    function RMSsupply(uint256 _medicineID) public {\r\n        require(_medicineID > 0 && _medicineID <= medicineCount);\r\n        uint256 _id = findRMS(msg.sender);\r\n        require(_id > 0);\r\n        require(medAvailable[_medicineID].stage == STAGE.Init);\r\n        medAvailable[_medicineID].RMSid = _id;\r\n        medAvailable[_medicineID].stage = STAGE.RawMaterialSupply;\r\n    }\r\n\r\n    //manufacture medicine\r\n    function Manufacturing(uint256 _medicineID) public {\r\n        require(_medicineID > 0 && _medicineID <= medicineCount);\r\n        uint256 _id = findMAN(msg.sender);\r\n        require(_id > 0);\r\n        require(medAvailable[_medicineID].stage == STAGE.RawMaterialSupply);\r\n        medAvailable[_medicineID].MANid = _id;\r\n        medAvailable[_medicineID].stage = STAGE.Manufacture;\r\n    }\r\n\r\n    // supply medicines from Manufacturer to distributor\r\n    function Distribute(uint256 _medicineID) public {\r\n        require(_medicineID > 0 && _medicineID <= medicineCount);\r\n        uint256 _id = findDIS(msg.sender);\r\n        require(_id > 0);\r\n        require(medAvailable[_medicineID].stage == STAGE.Manufacture);\r\n        medAvailable[_medicineID].DISTid = _id;\r\n        medAvailable[_medicineID].stage = STAGE.Distribution;\r\n    }\r\n\r\n    //supply medicines from distributor to retailer\r\n    function Retail(uint256 _medicineID) public {\r\n        require(_medicineID > 0 && _medicineID <= medicineCount);\r\n        uint256 _id = findRET(msg.sender);\r\n        require(_id > 0);\r\n        require(medAvailable[_medicineID].stage == STAGE.Distribution);\r\n        medAvailable[_medicineID].RETid = _id;\r\n        medAvailable[_medicineID].stage = STAGE.Retail;\r\n    }\r\n\r\n    //sell medicines from retailer to consumer\r\n    function sold(uint256 _medicineID) public {\r\n        require(_medicineID > 0 && _medicineID <= medicineCount);\r\n        uint256 _id = findRET(msg.sender);\r\n        require(_id > 0);\r\n        require(_id == medAvailable[_medicineID].RETid); \r\n        require(medAvailable[_medicineID].stage == STAGE.Retail);\r\n        medAvailable[_medicineID].stage = STAGE.sold;\r\n    }\r\n\r\n     // add new medicines to the stock\r\n    function addMedicine(string memory _name,string memory _expdate, string memory _description)\r\n        public\r\n        // onlyByGov()\r\n    {\r\n            require((rmsCount > 0) && (manCount > 0) && (distCount > 0) && (phCount > 0));\r\n        medicineCount++;\r\n        medAvailable[medicineCount] = medicine(\r\n            medicineCount,\r\n            _name,\r\n            _expdate,\r\n            _description,\r\n            0,\r\n            0,\r\n            0,\r\n            0,\r\n            STAGE.Init\r\n        );\r\n    }\r\n\r\n\r\n}",
  "sourcePath": "C:\\Users\\shino\\Documents\\BLOCK-CHAIN-DEVELOPMENT\\pharma-trust\\contracts\\PharmaTrust.sol",
  "compiler": {
    "name": "solc",
    "version": "0.8.13+commit.abaa5c0e.Emscripten.clang"
  },
  "schemaVersion": "3.4.13",
  "updatedAt": "2023-05-06T11:22:23.470Z",
  "devdoc": {
    "kind": "dev",
    "methods": {},
    "version": 1
  },
  "userdoc": {
    "kind": "user",
    "methods": {},
    "version": 1
  }
}