{
  "contractName": "PharmaTrust",
  "abi": [
    {
      "inputs": [],
      "stateMutability": "nonpayable",
      "type": "constructor"
    },
    {
      "inputs": [
        {
          "internalType": "uint256",
          "name": "",
          "type": "uint256"
        }
      ],
      "name": "DIST",
      "outputs": [
        {
          "internalType": "address",
          "name": "addr",
          "type": "address"
        },
        {
          "internalType": "uint256",
          "name": "id",
          "type": "uint256"
        },
        {
          "internalType": "string",
          "name": "name",
          "type": "string"
        },
        {
          "internalType": "string",
          "name": "place",
          "type": "string"
        }
      ],
      "stateMutability": "view",
      "type": "function"
    },
    {
      "inputs": [],
      "name": "Government",
      "outputs": [
        {
          "internalType": "address",
          "name": "",
          "type": "address"
        }
      ],
      "stateMutability": "view",
      "type": "function"
    },
    {
      "inputs": [
        {
          "internalType": "uint256",
          "name": "",
          "type": "uint256"
        }
      ],
      "name": "MAN",
      "outputs": [
        {
          "internalType": "address",
          "name": "addr",
          "type": "address"
        },
        {
          "internalType": "uint256",
          "name": "id",
          "type": "uint256"
        },
        {
          "internalType": "string",
          "name": "name",
          "type": "string"
        },
        {
          "internalType": "string",
          "name": "place",
          "type": "string"
        }
      ],
      "stateMutability": "view",
      "type": "function"
    },
    {
      "inputs": [
        {
          "internalType": "uint256",
          "name": "",
          "type": "uint256"
        }
      ],
      "name": "RET",
      "outputs": [
        {
          "internalType": "address",
          "name": "addr",
          "type": "address"
        },
        {
          "internalType": "uint256",
          "name": "id",
          "type": "uint256"
        },
        {
          "internalType": "string",
          "name": "name",
          "type": "string"
        },
        {
          "internalType": "string",
          "name": "place",
          "type": "string"
        }
      ],
      "stateMutability": "view",
      "type": "function"
    },
    {
      "inputs": [
        {
          "internalType": "uint256",
          "name": "",
          "type": "uint256"
        }
      ],
      "name": "RMS",
      "outputs": [
        {
          "internalType": "address",
          "name": "addr",
          "type": "address"
        },
        {
          "internalType": "uint256",
          "name": "id",
          "type": "uint256"
        },
        {
          "internalType": "string",
          "name": "name",
          "type": "string"
        },
        {
          "internalType": "string",
          "name": "place",
          "type": "string"
        }
      ],
      "stateMutability": "view",
      "type": "function"
    },
    {
      "inputs": [],
      "name": "distCount",
      "outputs": [
        {
          "internalType": "uint256",
          "name": "",
          "type": "uint256"
        }
      ],
      "stateMutability": "view",
      "type": "function"
    },
    {
      "inputs": [],
      "name": "manCount",
      "outputs": [
        {
          "internalType": "uint256",
          "name": "",
          "type": "uint256"
        }
      ],
      "stateMutability": "view",
      "type": "function"
    },
    {
      "inputs": [
        {
          "internalType": "uint256",
          "name": "",
          "type": "uint256"
        }
      ],
      "name": "medAvailable",
      "outputs": [
        {
          "internalType": "uint256",
          "name": "id",
          "type": "uint256"
        },
        {
          "internalType": "string",
          "name": "name",
          "type": "string"
        },
        {
          "internalType": "string",
          "name": "expDate",
          "type": "string"
        },
        {
          "internalType": "string",
          "name": "description",
          "type": "string"
        },
        {
          "internalType": "uint256",
          "name": "RMSid",
          "type": "uint256"
        },
        {
          "internalType": "uint256",
          "name": "MANid",
          "type": "uint256"
        },
        {
          "internalType": "uint256",
          "name": "DISTid",
          "type": "uint256"
        },
        {
          "internalType": "uint256",
          "name": "RETid",
          "type": "uint256"
        },
        {
          "internalType": "enum PharmaTrust.STAGE",
          "name": "stage",
          "type": "uint8"
        }
      ],
      "stateMutability": "view",
      "type": "function"
    },
    {
      "inputs": [],
      "name": "medicineCount",
      "outputs": [
        {
          "internalType": "uint256",
          "name": "",
          "type": "uint256"
        }
      ],
      "stateMutability": "view",
      "type": "function"
    },
    {
      "inputs": [],
      "name": "phCount",
      "outputs": [
        {
          "internalType": "uint256",
          "name": "",
          "type": "uint256"
        }
      ],
      "stateMutability": "view",
      "type": "function"
    },
    {
      "inputs": [],
      "name": "rmsCount",
      "outputs": [
        {
          "internalType": "uint256",
          "name": "",
          "type": "uint256"
        }
      ],
      "stateMutability": "view",
      "type": "function"
    },
    {
      "inputs": [
        {
          "internalType": "uint256",
          "name": "_medicineID",
          "type": "uint256"
        }
      ],
      "name": "showStage",
      "outputs": [
        {
          "internalType": "string",
          "name": "",
          "type": "string"
        }
      ],
      "stateMutability": "view",
      "type": "function"
    },
    {
      "inputs": [
        {
          "internalType": "address",
          "name": "_address",
          "type": "address"
        },
        {
          "internalType": "string",
          "name": "_name",
          "type": "string"
        },
        {
          "internalType": "string",
          "name": "_place",
          "type": "string"
        }
      ],
      "name": "addRMS",
      "outputs": [],
      "stateMutability": "nonpayable",
      "type": "function"
    },
    {
      "inputs": [
        {
          "internalType": "address",
          "name": "_address",
          "type": "address"
        },
        {
          "internalType": "string",
          "name": "_name",
          "type": "string"
        },
        {
          "internalType": "string",
          "name": "_place",
          "type": "string"
        }
      ],
      "name": "addManufacturer",
      "outputs": [],
      "stateMutability": "nonpayable",
      "type": "function"
    },
    {
      "inputs": [
        {
          "internalType": "address",
          "name": "_address",
          "type": "address"
        },
        {
          "internalType": "string",
          "name": "_name",
          "type": "string"
        },
        {
          "internalType": "string",
          "name": "_place",
          "type": "string"
        }
      ],
      "name": "addDistributor",
      "outputs": [],
      "stateMutability": "nonpayable",
      "type": "function"
    },
    {
      "inputs": [
        {
          "internalType": "address",
          "name": "_address",
          "type": "address"
        },
        {
          "internalType": "string",
          "name": "_name",
          "type": "string"
        },
        {
          "internalType": "string",
          "name": "_place",
          "type": "string"
        }
      ],
      "name": "addRetailer",
      "outputs": [],
      "stateMutability": "nonpayable",
      "type": "function"
    },
    {
      "inputs": [
        {
          "internalType": "uint256",
          "name": "_medicineID",
          "type": "uint256"
        }
      ],
      "name": "RMSsupply",
      "outputs": [],
      "stateMutability": "nonpayable",
      "type": "function"
    },
    {
      "inputs": [
        {
          "internalType": "uint256",
          "name": "_medicineID",
          "type": "uint256"
        }
      ],
      "name": "Manufacturing",
      "outputs": [],
      "stateMutability": "nonpayable",
      "type": "function"
    },
    {
      "inputs": [
        {
          "internalType": "uint256",
          "name": "_medicineID",
          "type": "uint256"
        }
      ],
      "name": "Distribute",
      "outputs": [],
      "stateMutability": "nonpayable",
      "type": "function"
    },
    {
      "inputs": [
        {
          "internalType": "uint256",
          "name": "_medicineID",
          "type": "uint256"
        }
      ],
      "name": "Retail",
      "outputs": [],
      "stateMutability": "nonpayable",
      "type": "function"
    },
    {
      "inputs": [
        {
          "internalType": "uint256",
          "name": "_medicineID",
          "type": "uint256"
        }
      ],
      "name": "sold",
      "outputs": [],
      "stateMutability": "nonpayable",
      "type": "function"
    },
    {
      "inputs": [
        {
          "internalType": "string",
          "name": "_name",
          "type": "string"
        },
        {
          "internalType": "string",
          "name": "_expdate",
          "type": "string"
        },
        {
          "internalType": "string",
          "name": "_description",
          "type": "string"
        }
      ],
      "name": "addMedicine",
      "outputs": [],
      "stateMutability": "nonpayable",
      "type": "function"
    }
  ],
  "bytecode": "0x60806040526000600155600060025560006003556000600455600060055534801561002957600080fd5b50336000806101000a81548173ffffffffffffffffffffffffffffffffffffffff021916908373ffffffffffffffffffffffffffffffffffffffff160217905550612705806100796000396000f3fe608060405234801561001057600080fd5b50600436106101425760003560e01c80637b855ae4116100b8578063a48d335a1161007c578063a48d335a14610344578063cc40306914610360578063d42510b614610393578063e101a2e0146103c6578063e4663853146103f6578063eef5cb401461041457610142565b80637b855ae4146102b45780637c25f260146102d2578063857ddb04146102f057806386c182751461030c5780639c03facb1461032857610142565b80633d753a1c1161010a5780633d753a1c146101f15780634d3fdae91461020d5780634dafd4901461022b5780634def474a1461024957806359bf286f146102655780636a992c9f1461029857610142565b806302e0d9fa14610147578063030c790f146101655780632a4af440146101815780632b70b08d1461019d5780633c1820c2146101b9575b600080fd5b61014f610447565b60405161015c9190611de5565b60405180910390f35b61017f600480360381019061017a9190611f5a565b61044d565b005b61019b6004803603810190610196919061205f565b610611565b005b6101b760048036038101906101b2919061205f565b610754565b005b6101d360048036038101906101ce9190612116565b610897565b6040516101e899989796959493929190612239565b60405180910390f35b61020b60048036038101906102069190612116565b610a8a565b005b610215610b71565b6040516102229190611de5565b60405180910390f35b610233610b77565b6040516102409190611de5565b60405180910390f35b610263600480360381019061025e9190612116565b610b7d565b005b61027f600480360381019061027a9190612116565b610c64565b60405161028f94939291906122ea565b60405180910390f35b6102b260048036038101906102ad919061205f565b610dc4565b005b6102bc610f07565b6040516102c99190611de5565b60405180910390f35b6102da610f0d565b6040516102e7919061233d565b60405180910390f35b61030a6004803603810190610305919061205f565b610f31565b005b61032660048036038101906103219190612116565b611074565b005b610342600480360381019061033d9190612116565b61115b565b005b61035e60048036038101906103599190612116565b611249565b005b61037a60048036038101906103759190612116565b611330565b60405161038a94939291906122ea565b60405180910390f35b6103ad60048036038101906103a89190612116565b611490565b6040516103bd94939291906122ea565b60405180910390f35b6103e060048036038101906103db9190612116565b6115f0565b6040516103ed9190612358565b60405180910390f35b6103fe61194e565b60405161040b9190611de5565b60405180910390f35b61042e60048036038101906104299190612116565b611954565b60405161043e94939291906122ea565b60405180910390f35b60055481565b60008054906101000a900473ffffffffffffffffffffffffffffffffffffffff1673ffffffffffffffffffffffffffffffffffffffff163373ffffffffffffffffffffffffffffffffffffffff16146104a557600080fd5b60006002541180156104b957506000600354115b80156104c757506000600454115b80156104d557506000600554115b6104de57600080fd5b600160008154809291906104f1906123a9565b91905055506040518061012001604052806001548152602001848152602001838152602001828152602001600081526020016000815260200160008152602001600081526020016000600581111561054c5761054b6121c2565b5b81525060066000600154815260200190815260200160002060008201518160000155602082015181600101908161058391906125fd565b50604082015181600201908161059991906125fd565b5060608201518160030190816105af91906125fd565b506080820151816004015560a0820151816005015560c0820151816006015560e082015181600701556101008201518160080160006101000a81548160ff02191690836005811115610604576106036121c2565b5b0217905550905050505050565b60008054906101000a900473ffffffffffffffffffffffffffffffffffffffff1673ffffffffffffffffffffffffffffffffffffffff163373ffffffffffffffffffffffffffffffffffffffff161461066957600080fd5b6004600081548092919061067c906123a9565b919050555060405180608001604052808473ffffffffffffffffffffffffffffffffffffffff16815260200160045481526020018381526020018281525060096000600454815260200190815260200160002060008201518160000160006101000a81548173ffffffffffffffffffffffffffffffffffffffff021916908373ffffffffffffffffffffffffffffffffffffffff16021790555060208201518160010155604082015181600201908161073591906125fd565b50606082015181600301908161074b91906125fd565b50905050505050565b60008054906101000a900473ffffffffffffffffffffffffffffffffffffffff1673ffffffffffffffffffffffffffffffffffffffff163373ffffffffffffffffffffffffffffffffffffffff16146107ac57600080fd5b600260008154809291906107bf906123a9565b919050555060405180608001604052808473ffffffffffffffffffffffffffffffffffffffff16815260200160025481526020018381526020018281525060076000600254815260200190815260200160002060008201518160000160006101000a81548173ffffffffffffffffffffffffffffffffffffffff021916908373ffffffffffffffffffffffffffffffffffffffff16021790555060208201518160010155604082015181600201908161087891906125fd565b50606082015181600301908161088e91906125fd565b50905050505050565b60066020528060005260406000206000915090508060000154908060010180546108c090612420565b80601f01602080910402602001604051908101604052809291908181526020018280546108ec90612420565b80156109395780601f1061090e57610100808354040283529160200191610939565b820191906000526020600020905b81548152906001019060200180831161091c57829003601f168201915b50505050509080600201805461094e90612420565b80601f016020809104026020016040519081016040528092919081815260200182805461097a90612420565b80156109c75780601f1061099c576101008083540402835291602001916109c7565b820191906000526020600020905b8154815290600101906020018083116109aa57829003601f168201915b5050505050908060030180546109dc90612420565b80601f0160208091040260200160405190810160405280929190818152602001828054610a0890612420565b8015610a555780601f10610a2a57610100808354040283529160200191610a55565b820191906000526020600020905b815481529060010190602001808311610a3857829003601f168201915b5050505050908060040154908060050154908060060154908060070154908060080160009054906101000a900460ff16905089565b600081118015610a9c57506001548111155b610aa557600080fd5b6000610ab033611ab4565b905060008111610abf57600080fd5b60036005811115610ad357610ad26121c2565b5b6006600084815260200190815260200160002060080160009054906101000a900460ff166005811115610b0957610b086121c2565b5b14610b1357600080fd5b80600660008481526020019081526020016000206007018190555060046006600084815260200190815260200160002060080160006101000a81548160ff02191690836005811115610b6857610b676121c2565b5b02179055505050565b60045481565b60015481565b600081118015610b8f57506001548111155b610b9857600080fd5b6000610ba333611b7a565b905060008111610bb257600080fd5b60026005811115610bc657610bc56121c2565b5b6006600084815260200190815260200160002060080160009054906101000a900460ff166005811115610bfc57610bfb6121c2565b5b14610c0657600080fd5b80600660008481526020019081526020016000206006018190555060036006600084815260200190815260200160002060080160006101000a81548160ff02191690836005811115610c5b57610c5a6121c2565b5b02179055505050565b600a6020528060005260406000206000915090508060000160009054906101000a900473ffffffffffffffffffffffffffffffffffffffff1690806001015490806002018054610cb390612420565b80601f0160208091040260200160405190810160405280929190818152602001828054610cdf90612420565b8015610d2c5780601f10610d0157610100808354040283529160200191610d2c565b820191906000526020600020905b815481529060010190602001808311610d0f57829003601f168201915b505050505090806003018054610d4190612420565b80601f0160208091040260200160405190810160405280929190818152602001828054610d6d90612420565b8015610dba5780601f10610d8f57610100808354040283529160200191610dba565b820191906000526020600020905b815481529060010190602001808311610d9d57829003601f168201915b5050505050905084565b60008054906101000a900473ffffffffffffffffffffffffffffffffffffffff1673ffffffffffffffffffffffffffffffffffffffff163373ffffffffffffffffffffffffffffffffffffffff1614610e1c57600080fd5b60036000815480929190610e2f906123a9565b919050555060405180608001604052808473ffffffffffffffffffffffffffffffffffffffff16815260200160035481526020018381526020018281525060086000600354815260200190815260200160002060008201518160000160006101000a81548173ffffffffffffffffffffffffffffffffffffffff021916908373ffffffffffffffffffffffffffffffffffffffff160217905550602082015181600101556040820151816002019081610ee891906125fd565b506060820151816003019081610efe91906125fd565b50905050505050565b60035481565b60008054906101000a900473ffffffffffffffffffffffffffffffffffffffff1681565b60008054906101000a900473ffffffffffffffffffffffffffffffffffffffff1673ffffffffffffffffffffffffffffffffffffffff163373ffffffffffffffffffffffffffffffffffffffff1614610f8957600080fd5b60056000815480929190610f9c906123a9565b919050555060405180608001604052808473ffffffffffffffffffffffffffffffffffffffff168152602001600554815260200183815260200182815250600a6000600554815260200190815260200160002060008201518160000160006101000a81548173ffffffffffffffffffffffffffffffffffffffff021916908373ffffffffffffffffffffffffffffffffffffffff16021790555060208201518160010155604082015181600201908161105591906125fd565b50606082015181600301908161106b91906125fd565b50905050505050565b60008111801561108657506001548111155b61108f57600080fd5b600061109a33611c40565b9050600081116110a957600080fd5b600060058111156110bd576110bc6121c2565b5b6006600084815260200190815260200160002060080160009054906101000a900460ff1660058111156110f3576110f26121c2565b5b146110fd57600080fd5b80600660008481526020019081526020016000206004018190555060016006600084815260200190815260200160002060080160006101000a81548160ff02191690836005811115611152576111516121c2565b5b02179055505050565b60008111801561116d57506001548111155b61117657600080fd5b600061118133611ab4565b90506000811161119057600080fd5b600660008381526020019081526020016000206007015481146111b257600080fd5b600460058111156111c6576111c56121c2565b5b6006600084815260200190815260200160002060080160009054906101000a900460ff1660058111156111fc576111fb6121c2565b5b1461120657600080fd5b60056006600084815260200190815260200160002060080160006101000a81548160ff021916908360058111156112405761123f6121c2565b5b02179055505050565b60008111801561125b57506001548111155b61126457600080fd5b600061126f33611d06565b90506000811161127e57600080fd5b60016005811115611292576112916121c2565b5b6006600084815260200190815260200160002060080160009054906101000a900460ff1660058111156112c8576112c76121c2565b5b146112d257600080fd5b80600660008481526020019081526020016000206005018190555060026006600084815260200190815260200160002060080160006101000a81548160ff02191690836005811115611327576113266121c2565b5b02179055505050565b60086020528060005260406000206000915090508060000160009054906101000a900473ffffffffffffffffffffffffffffffffffffffff169080600101549080600201805461137f90612420565b80601f01602080910402602001604051908101604052809291908181526020018280546113ab90612420565b80156113f85780601f106113cd576101008083540402835291602001916113f8565b820191906000526020600020905b8154815290600101906020018083116113db57829003601f168201915b50505050509080600301805461140d90612420565b80601f016020809104026020016040519081016040528092919081815260200182805461143990612420565b80156114865780601f1061145b57610100808354040283529160200191611486565b820191906000526020600020905b81548152906001019060200180831161146957829003601f168201915b5050505050905084565b60096020528060005260406000206000915090508060000160009054906101000a900473ffffffffffffffffffffffffffffffffffffffff16908060010154908060020180546114df90612420565b80601f016020809104026020016040519081016040528092919081815260200182805461150b90612420565b80156115585780601f1061152d57610100808354040283529160200191611558565b820191906000526020600020905b81548152906001019060200180831161153b57829003601f168201915b50505050509080600301805461156d90612420565b80601f016020809104026020016040519081016040528092919081815260200182805461159990612420565b80156115e65780601f106115bb576101008083540402835291602001916115e6565b820191906000526020600020905b8154815290600101906020018083116115c957829003601f168201915b5050505050905084565b606060006001541161160157600080fd5b60006005811115611615576116146121c2565b5b6006600084815260200190815260200160002060080160009054906101000a900460ff16600581111561164b5761164a6121c2565b5b0361168d576040518060400160405280601081526020017f4d65646963696e65204f726465726564000000000000000000000000000000008152509050611949565b600160058111156116a1576116a06121c2565b5b6006600084815260200190815260200160002060080160009054906101000a900460ff1660058111156116d7576116d66121c2565b5b03611719576040518060400160405280601981526020017f526177204d6174657269616c20537570706c79205374616765000000000000008152509050611949565b6002600581111561172d5761172c6121c2565b5b6006600084815260200190815260200160002060080160009054906101000a900460ff166005811115611763576117626121c2565b5b036117a5576040518060400160405280601381526020017f4d616e75666163747572696e67205374616765000000000000000000000000008152509050611949565b600360058111156117b9576117b86121c2565b5b6006600084815260200190815260200160002060080160009054906101000a900460ff1660058111156117ef576117ee6121c2565b5b03611831576040518060400160405280601281526020017f446973747269627574696f6e20537461676500000000000000000000000000008152509050611949565b60046005811115611845576118446121c2565b5b6006600084815260200190815260200160002060080160009054906101000a900460ff16600581111561187b5761187a6121c2565b5b036118bd576040518060400160405280600c81526020017f52657461696c20537461676500000000000000000000000000000000000000008152509050611949565b6005808111156118d0576118cf6121c2565b5b6006600084815260200190815260200160002060080160009054906101000a900460ff166005811115611906576119056121c2565b5b03611948576040518060400160405280600d81526020017f4d65646963696e6520536f6c64000000000000000000000000000000000000008152509050611949565b5b919050565b60025481565b60076020528060005260406000206000915090508060000160009054906101000a900473ffffffffffffffffffffffffffffffffffffffff16908060010154908060020180546119a390612420565b80601f01602080910402602001604051908101604052809291908181526020018280546119cf90612420565b8015611a1c5780601f106119f157610100808354040283529160200191611a1c565b820191906000526020600020905b8154815290600101906020018083116119ff57829003601f168201915b505050505090806003018054611a3190612420565b80601f0160208091040260200160405190810160405280929190818152602001828054611a5d90612420565b8015611aaa5780601f10611a7f57610100808354040283529160200191611aaa565b820191906000526020600020905b815481529060010190602001808311611a8d57829003601f168201915b5050505050905084565b60008060055411611ac457600080fd5b6000600190505b6005548111611b6f578273ffffffffffffffffffffffffffffffffffffffff16600a600083815260200190815260200160002060000160009054906101000a900473ffffffffffffffffffffffffffffffffffffffff1673ffffffffffffffffffffffffffffffffffffffff1603611b5c57600a600082815260200190815260200160002060010154915050611b75565b8080611b67906123a9565b915050611acb565b50600090505b919050565b60008060045411611b8a57600080fd5b6000600190505b6004548111611c35578273ffffffffffffffffffffffffffffffffffffffff166009600083815260200190815260200160002060000160009054906101000a900473ffffffffffffffffffffffffffffffffffffffff1673ffffffffffffffffffffffffffffffffffffffff1603611c22576009600082815260200190815260200160002060010154915050611c3b565b8080611c2d906123a9565b915050611b91565b50600090505b919050565b60008060025411611c5057600080fd5b6000600190505b6002548111611cfb578273ffffffffffffffffffffffffffffffffffffffff166007600083815260200190815260200160002060000160009054906101000a900473ffffffffffffffffffffffffffffffffffffffff1673ffffffffffffffffffffffffffffffffffffffff1603611ce8576007600082815260200190815260200160002060010154915050611d01565b8080611cf3906123a9565b915050611c57565b50600090505b919050565b60008060035411611d1657600080fd5b6000600190505b6003548111611dc1578273ffffffffffffffffffffffffffffffffffffffff166008600083815260200190815260200160002060000160009054906101000a900473ffffffffffffffffffffffffffffffffffffffff1673ffffffffffffffffffffffffffffffffffffffff1603611dae576008600082815260200190815260200160002060010154915050611dc7565b8080611db9906123a9565b915050611d1d565b50600090505b919050565b6000819050919050565b611ddf81611dcc565b82525050565b6000602082019050611dfa6000830184611dd6565b92915050565b6000604051905090565b600080fd5b600080fd5b600080fd5b600080fd5b6000601f19601f8301169050919050565b7f4e487b7100000000000000000000000000000000000000000000000000000000600052604160045260246000fd5b611e6782611e1e565b810181811067ffffffffffffffff82111715611e8657611e85611e2f565b5b80604052505050565b6000611e99611e00565b9050611ea58282611e5e565b919050565b600067ffffffffffffffff821115611ec557611ec4611e2f565b5b611ece82611e1e565b9050602081019050919050565b82818337600083830152505050565b6000611efd611ef884611eaa565b611e8f565b905082815260208101848484011115611f1957611f18611e19565b5b611f24848285611edb565b509392505050565b600082601f830112611f4157611f40611e14565b5b8135611f51848260208601611eea565b91505092915050565b600080600060608486031215611f7357611f72611e0a565b5b600084013567ffffffffffffffff811115611f9157611f90611e0f565b5b611f9d86828701611f2c565b935050602084013567ffffffffffffffff811115611fbe57611fbd611e0f565b5b611fca86828701611f2c565b925050604084013567ffffffffffffffff811115611feb57611fea611e0f565b5b611ff786828701611f2c565b9150509250925092565b600073ffffffffffffffffffffffffffffffffffffffff82169050919050565b600061202c82612001565b9050919050565b61203c81612021565b811461204757600080fd5b50565b60008135905061205981612033565b92915050565b60008060006060848603121561207857612077611e0a565b5b60006120868682870161204a565b935050602084013567ffffffffffffffff8111156120a7576120a6611e0f565b5b6120b386828701611f2c565b925050604084013567ffffffffffffffff8111156120d4576120d3611e0f565b5b6120e086828701611f2c565b9150509250925092565b6120f381611dcc565b81146120fe57600080fd5b50565b600081359050612110816120ea565b92915050565b60006020828403121561212c5761212b611e0a565b5b600061213a84828501612101565b91505092915050565b600081519050919050565b600082825260208201905092915050565b60005b8381101561217d578082015181840152602081019050612162565b60008484015250505050565b600061219482612143565b61219e818561214e565b93506121ae81856020860161215f565b6121b781611e1e565b840191505092915050565b7f4e487b7100000000000000000000000000000000000000000000000000000000600052602160045260246000fd5b60068110612202576122016121c2565b5b50565b6000819050612213826121f1565b919050565b600061222382612205565b9050919050565b61223381612218565b82525050565b60006101208201905061224f600083018c611dd6565b8181036020830152612261818b612189565b90508181036040830152612275818a612189565b905081810360608301526122898189612189565b90506122986080830188611dd6565b6122a560a0830187611dd6565b6122b260c0830186611dd6565b6122bf60e0830185611dd6565b6122cd61010083018461222a565b9a9950505050505050505050565b6122e481612021565b82525050565b60006080820190506122ff60008301876122db565b61230c6020830186611dd6565b818103604083015261231e8185612189565b905081810360608301526123328184612189565b905095945050505050565b600060208201905061235260008301846122db565b92915050565b600060208201905081810360008301526123728184612189565b905092915050565b7f4e487b7100000000000000000000000000000000000000000000000000000000600052601160045260246000fd5b60006123b482611dcc565b91507fffffffffffffffffffffffffffffffffffffffffffffffffffffffffffffffff82036123e6576123e561237a565b5b600182019050919050565b7f4e487b7100000000000000000000000000000000000000000000000000000000600052602260045260246000fd5b6000600282049050600182168061243857607f821691505b60208210810361244b5761244a6123f1565b5b50919050565b60008190508160005260206000209050919050565b60006020601f8301049050919050565b600082821b905092915050565b6000600883026124b37fffffffffffffffffffffffffffffffffffffffffffffffffffffffffffffffff82612476565b6124bd8683612476565b95508019841693508086168417925050509392505050565b6000819050919050565b60006124fa6124f56124f084611dcc565b6124d5565b611dcc565b9050919050565b6000819050919050565b612514836124df565b61252861252082612501565b848454612483565b825550505050565b600090565b61253d612530565b61254881848461250b565b505050565b5b8181101561256c57612561600082612535565b60018101905061254e565b5050565b601f8211156125b15761258281612451565b61258b84612466565b8101602085101561259a578190505b6125ae6125a685612466565b83018261254d565b50505b505050565b600082821c905092915050565b60006125d4600019846008026125b6565b1980831691505092915050565b60006125ed83836125c3565b9150826002028217905092915050565b61260682612143565b67ffffffffffffffff81111561261f5761261e611e2f565b5b6126298254612420565b612634828285612570565b600060209050601f8311600181146126675760008415612655578287015190505b61265f85826125e1565b8655506126c7565b601f19841661267586612451565b60005b8281101561269d57848901518255600182019150602085019450602081019050612678565b868310156126ba57848901516126b6601f8916826125c3565b8355505b6001600288020188555050505b50505050505056fea26469706673582212207f78f9809742149698f7eff3d1563e9e9ceb8fbe0b2a85fa0564315cc3ba809c64736f6c63430008130033",
  "immutableReferences": {},
  "source": "// SPDX-License-Identifier: MIT\r\npragma solidity ^0.8.0;\r\n\r\ncontract PharmaTrust {\r\n    address public Government;\r\n\r\n    constructor() public {\r\n        Government = msg.sender;\r\n    }\r\n\r\n    uint256 public medicineCount = 0;\r\n    uint256 public rmsCount = 0;\r\n    uint256 public  manCount = 0;\r\n    uint256 public distCount = 0;\r\n    uint256 public phCount = 0;\r\n\r\n    enum STAGE {\r\n        Init,\r\n        RawMaterialSupply,\r\n        Manufacture,\r\n        Distribution,\r\n        Retail,\r\n        sold\r\n    }\r\n\r\n    struct medicine {\r\n        uint256 id; \r\n        string name; \r\n        string expDate;\r\n        string description; \r\n        uint256 RMSid; \r\n        uint256 MANid; \r\n        uint256 DISTid; \r\n        uint256 RETid; \r\n        STAGE stage;\r\n    }\r\n    mapping(uint256 => medicine) public medAvailable;\r\n\r\n    function showStage(uint256 _medicineID)\r\n        public\r\n        view\r\n        returns (string memory)\r\n    {\r\n        require(medicineCount > 0);\r\n        if (medAvailable[_medicineID].stage == STAGE.Init)\r\n            return \"Medicine Ordered\";\r\n        else if (medAvailable[_medicineID].stage == STAGE.RawMaterialSupply)\r\n            return \"Raw Material Supply Stage\";\r\n        else if (medAvailable[_medicineID].stage == STAGE.Manufacture)\r\n            return \"Manufacturing Stage\";\r\n        else if (medAvailable[_medicineID].stage == STAGE.Distribution)\r\n            return \"Distribution Stage\";\r\n        else if (medAvailable[_medicineID].stage == STAGE.Retail)\r\n            return \"Retail Stage\";\r\n        else if (medAvailable[_medicineID].stage == STAGE.sold)\r\n            return \"Medicine Sold\";\r\n    }\r\n\r\n    struct rawMaterialSupplier {\r\n        address addr;\r\n        uint256 id; \r\n        string name; \r\n        string place; \r\n    }\r\n    mapping(uint256 => rawMaterialSupplier) public RMS;\r\n\r\n    struct manufacturer {\r\n        address addr;\r\n        uint256 id;\r\n        string name;\r\n        string place;\r\n    }\r\n    mapping(uint256 => manufacturer) public MAN;\r\n\r\n    struct distributor {\r\n        address addr;\r\n        uint256 id;\r\n        string name;\r\n        string place; \r\n    }\r\n    mapping(uint256 => distributor) public DIST;\r\n\r\n    struct retailer {\r\n        address addr;\r\n        uint256 id; \r\n        string name; \r\n        string place;\r\n    }\r\n    mapping(uint256 => retailer) public RET;\r\n\r\n    modifier onlyByGov() {\r\n        require(msg.sender == Government);\r\n        _;\r\n    }\r\n\r\n    function addRMS(address _address,string memory _name,string memory _place) public onlyByGov {\r\n        rmsCount++;\r\n        RMS[rmsCount] = rawMaterialSupplier(_address, rmsCount, _name, _place);\r\n    }\r\n\r\n    function addManufacturer(address _address,string memory _name,string memory _place) public onlyByGov {\r\n        manCount++;\r\n        MAN[manCount] = manufacturer(_address, manCount, _name, _place);\r\n    }\r\n\r\n    function addDistributor(address _address,string memory _name,string memory _place) public onlyByGov {\r\n        distCount++;\r\n        DIST[distCount] = distributor(_address, distCount, _name, _place);\r\n    }\r\n\r\n    function addRetailer(address _address,string memory _name,string memory _place) public onlyByGov {\r\n        phCount++;\r\n        RET[phCount] = retailer(_address, phCount, _name, _place);\r\n    }\r\n\r\n    //check RMS available in blockchain\r\n    function findRMS(address _address) private view returns (uint256) {\r\n        require(rmsCount > 0);\r\n        for (uint256 i = 1; i <= rmsCount; i++) {\r\n            if (RMS[i].addr == _address) return RMS[i].id;\r\n        }\r\n        return 0;\r\n    }\r\n\r\n    //check Manufacturer available in blockchain\r\n    function findMAN(address _address) private view returns (uint256) {\r\n        require(manCount > 0);\r\n        for (uint256 i = 1; i <= manCount; i++) {\r\n            if (MAN[i].addr == _address) return MAN[i].id;\r\n        }\r\n        return 0;\r\n    }\r\n\r\n    //check distributor available in blockchain\r\n    function findDIS(address _address) private view returns (uint256) {\r\n        require(distCount > 0);\r\n        for (uint256 i = 1; i <= distCount; i++) {\r\n            if (DIST[i].addr == _address) return DIST[i].id;\r\n        }\r\n        return 0;\r\n    }\r\n\r\n    //check retailer available in blockchain\r\n    function findRET(address _address) private view returns (uint256) {\r\n        require(phCount > 0);\r\n        for (uint256 i = 1; i <= phCount; i++) {\r\n            if (RET[i].addr == _address) return RET[i].id;\r\n        }\r\n        return 0;\r\n    }\r\n\r\n    //supply raw materials from RMS supplier to manufacturer\r\n    function RMSsupply(uint256 _medicineID) public {\r\n        require(_medicineID > 0 && _medicineID <= medicineCount);\r\n        uint256 _id = findRMS(msg.sender);\r\n        require(_id > 0);\r\n        require(medAvailable[_medicineID].stage == STAGE.Init);\r\n        medAvailable[_medicineID].RMSid = _id;\r\n        medAvailable[_medicineID].stage = STAGE.RawMaterialSupply;\r\n    }\r\n\r\n    //manufacture medicine\r\n    function Manufacturing(uint256 _medicineID) public {\r\n        require(_medicineID > 0 && _medicineID <= medicineCount);\r\n        uint256 _id = findMAN(msg.sender);\r\n        require(_id > 0);\r\n        require(medAvailable[_medicineID].stage == STAGE.RawMaterialSupply);\r\n        medAvailable[_medicineID].MANid = _id;\r\n        medAvailable[_medicineID].stage = STAGE.Manufacture;\r\n    }\r\n\r\n    // supply medicines from Manufacturer to distributor\r\n    function Distribute(uint256 _medicineID) public {\r\n        require(_medicineID > 0 && _medicineID <= medicineCount);\r\n        uint256 _id = findDIS(msg.sender);\r\n        require(_id > 0);\r\n        require(medAvailable[_medicineID].stage == STAGE.Manufacture);\r\n        medAvailable[_medicineID].DISTid = _id;\r\n        medAvailable[_medicineID].stage = STAGE.Distribution;\r\n    }\r\n\r\n    //supply medicines from distributor to retailer\r\n    function Retail(uint256 _medicineID) public {\r\n        require(_medicineID > 0 && _medicineID <= medicineCount);\r\n        uint256 _id = findRET(msg.sender);\r\n        require(_id > 0);\r\n        require(medAvailable[_medicineID].stage == STAGE.Distribution);\r\n        medAvailable[_medicineID].RETid = _id;\r\n        medAvailable[_medicineID].stage = STAGE.Retail;\r\n    }\r\n\r\n    //sell medicines from retailer to consumer\r\n    function sold(uint256 _medicineID) public {\r\n        require(_medicineID > 0 && _medicineID <= medicineCount);\r\n        uint256 _id = findRET(msg.sender);\r\n        require(_id > 0);\r\n        require(_id == medAvailable[_medicineID].RETid); \r\n        require(medAvailable[_medicineID].stage == STAGE.Retail);\r\n        medAvailable[_medicineID].stage = STAGE.sold;\r\n    }\r\n\r\n     // add new medicines to the stock\r\n    function addMedicine(string memory _name,string memory _expdate, string memory _description)\r\n        public\r\n        onlyByGov()\r\n    {\r\n            require((rmsCount > 0) && (manCount > 0) && (distCount > 0) && (phCount > 0));\r\n        medicineCount++;\r\n        medAvailable[medicineCount] = medicine(\r\n            medicineCount,\r\n            _name,\r\n            _expdate,\r\n            _description,\r\n            0,\r\n            0,\r\n            0,\r\n            0,\r\n            STAGE.Init\r\n        );\r\n    }\r\n\r\n\r\n}",
  "sourcePath": "C:\\Users\\shino\\Documents\\BLOCK-CHAIN-DEVELOPMENT\\pharma-trust\\contracts\\PharmaTrust.sol",
  "compiler": {
    "name": "solc",
    "version": "0.8.19+commit.7dd6d404.Emscripten.clang"
  },
  "schemaVersion": "3.4.13",
  "updatedAt": "2023-05-06T03:55:24.999Z",
  "devdoc": {
    "kind": "dev",
    "methods": {},
    "version": 1
  },
  "userdoc": {
    "kind": "user",
    "methods": {},
    "version": 1
  }
}